{
  "contractName": "ShoutRoom",
  "abi": [
    {
      "constant": true,
      "inputs": [],
      "name": "userList",
      "outputs": [
        {
          "name": "",
          "type": "address"
        }
      ],
      "payable": false,
      "stateMutability": "view",
      "type": "function"
    },
    {
      "constant": true,
      "inputs": [
        {
          "name": "",
          "type": "uint256"
        }
      ],
      "name": "shoutBoard",
      "outputs": [
        {
          "name": "who",
          "type": "address"
        },
        {
          "name": "what",
          "type": "string"
        }
      ],
      "payable": false,
      "stateMutability": "view",
      "type": "function"
    },
    {
      "constant": true,
      "inputs": [
        {
          "name": "",
          "type": "uint256"
        },
        {
          "name": "",
          "type": "uint256"
        }
      ],
      "name": "likers",
      "outputs": [
        {
          "name": "",
          "type": "address"
        }
      ],
      "payable": false,
      "stateMutability": "view",
      "type": "function"
    },
    {
      "constant": false,
      "inputs": [],
      "name": "renounceOwnership",
      "outputs": [],
      "payable": false,
      "stateMutability": "nonpayable",
      "type": "function"
    },
    {
      "constant": true,
      "inputs": [],
      "name": "owner",
      "outputs": [
        {
          "name": "",
          "type": "address"
        }
      ],
      "payable": false,
      "stateMutability": "view",
      "type": "function"
    },
    {
      "constant": true,
      "inputs": [],
      "name": "isOwner",
      "outputs": [
        {
          "name": "",
          "type": "bool"
        }
      ],
      "payable": false,
      "stateMutability": "view",
      "type": "function"
    },
    {
      "constant": false,
      "inputs": [
        {
          "name": "newOwner",
          "type": "address"
        }
      ],
      "name": "transferOwnership",
      "outputs": [],
      "payable": false,
      "stateMutability": "nonpayable",
      "type": "function"
    },
    {
      "inputs": [
        {
          "name": "_userList",
          "type": "address"
        }
      ],
      "payable": false,
      "stateMutability": "nonpayable",
      "type": "constructor"
    },
    {
      "anonymous": false,
      "inputs": [
        {
          "indexed": true,
          "name": "who",
          "type": "address"
        },
        {
          "indexed": false,
          "name": "what",
          "type": "string"
        }
      ],
      "name": "Shout",
      "type": "event"
    },
    {
      "anonymous": false,
      "inputs": [
        {
          "indexed": true,
          "name": "previousOwner",
          "type": "address"
        },
        {
          "indexed": true,
          "name": "newOwner",
          "type": "address"
        }
      ],
      "name": "OwnershipTransferred",
      "type": "event"
    },
    {
      "constant": false,
      "inputs": [
        {
          "name": "_userList",
          "type": "address"
        }
      ],
      "name": "setUserList",
      "outputs": [],
      "payable": false,
      "stateMutability": "nonpayable",
      "type": "function"
    },
    {
      "constant": false,
      "inputs": [
        {
          "name": "what",
          "type": "string"
        }
      ],
      "name": "shout",
      "outputs": [],
      "payable": false,
      "stateMutability": "nonpayable",
      "type": "function"
    },
    {
      "constant": true,
      "inputs": [],
      "name": "count",
      "outputs": [
        {
          "name": "",
          "type": "uint256"
        }
      ],
      "payable": false,
      "stateMutability": "view",
      "type": "function"
    },
    {
      "constant": true,
      "inputs": [],
      "name": "getShouts",
      "outputs": [
        {
          "name": "whoList",
          "type": "address[]"
        },
        {
          "name": "content",
          "type": "string"
        }
      ],
      "payable": false,
      "stateMutability": "view",
      "type": "function"
    }
  ],
  "bytecode": "0x608060405234801561001057600080fd5b5060405160208061119483398101806040528101908080519060200190929190505050336000806101000a81548173ffffffffffffffffffffffffffffffffffffffff021916908373ffffffffffffffffffffffffffffffffffffffff1602179055506000809054906101000a900473ffffffffffffffffffffffffffffffffffffffff1673ffffffffffffffffffffffffffffffffffffffff16600073ffffffffffffffffffffffffffffffffffffffff167f8be0079c531659141344cd1fd0a4f28419497f9722a3daafe3b4186f6b6457e060405160405180910390a380600260006101000a81548173ffffffffffffffffffffffffffffffffffffffff021916908373ffffffffffffffffffffffffffffffffffffffff16021790555050611054806101406000396000f3006080604052600436106100af576000357c0100000000000000000000000000000000000000000000000000000000900463ffffffff16806306661abd146100b45780630e0f785f146100df5780633998cacb146101365780635c0c3dce1461020f578063625d2055146102525780636d5a3861146102bb578063715018a6146103325780638da5cb5b146103495780638f32d59b146103a0578063d7fd12a8146103cf578063f2fde38b146104a7575b600080fd5b3480156100c057600080fd5b506100c96104ea565b6040518082815260200191505060405180910390f35b3480156100eb57600080fd5b506100f46104f7565b604051808273ffffffffffffffffffffffffffffffffffffffff1673ffffffffffffffffffffffffffffffffffffffff16815260200191505060405180910390f35b34801561014257600080fd5b506101616004803603810190808035906020019092919050505061051d565b604051808373ffffffffffffffffffffffffffffffffffffffff1673ffffffffffffffffffffffffffffffffffffffff16815260200180602001828103825283818151815260200191508051906020019080838360005b838110156101d35780820151818401526020810190506101b8565b50505050905090810190601f1680156102005780820380516001836020036101000a031916815260200191505b50935050505060405180910390f35b34801561021b57600080fd5b50610250600480360381019080803573ffffffffffffffffffffffffffffffffffffffff169060200190929190505050610608565b005b34801561025e57600080fd5b506102b9600480360381019080803590602001908201803590602001908080601f016020809104026020016040519081016040528093929190818152602001838380828437820191505050505050919291929050505061065f565b005b3480156102c757600080fd5b506102f06004803603810190808035906020019092919080359060200190929190505050610a81565b604051808273ffffffffffffffffffffffffffffffffffffffff1673ffffffffffffffffffffffffffffffffffffffff16815260200191505060405180910390f35b34801561033e57600080fd5b50610347610ace565b005b34801561035557600080fd5b5061035e610ba0565b604051808273ffffffffffffffffffffffffffffffffffffffff1673ffffffffffffffffffffffffffffffffffffffff16815260200191505060405180910390f35b3480156103ac57600080fd5b506103b5610bc9565b604051808215151515815260200191505060405180910390f35b3480156103db57600080fd5b506103e4610c20565b604051808060200180602001838103835285818151815260200191508051906020019060200280838360005b8381101561042b578082015181840152602081019050610410565b50505050905001838103825284818151815260200191508051906020019080838360005b8381101561046a57808201518184015260208101905061044f565b50505050905090810190601f1680156104975780820380516001836020036101000a031916815260200191505b5094505050505060405180910390f35b3480156104b357600080fd5b506104e8600480360381019080803573ffffffffffffffffffffffffffffffffffffffff169060200190929190505050610e6a565b005b6000600180549050905090565b600260009054906101000a900473ffffffffffffffffffffffffffffffffffffffff1681565b60018181548110151561052c57fe5b90600052602060002090600202016000915090508060000160009054906101000a900473ffffffffffffffffffffffffffffffffffffffff1690806001018054600181600116156101000203166002900480601f0160208091040260200160405190810160405280929190818152602001828054600181600116156101000203166002900480156105fe5780601f106105d3576101008083540402835291602001916105fe565b820191906000526020600020905b8154815290600101906020018083116105e157829003601f168201915b5050505050905082565b610610610bc9565b151561061b57600080fd5b80600260006101000a81548173ffffffffffffffffffffffffffffffffffffffff021916908373ffffffffffffffffffffffffffffffffffffffff16021790555050565b60008151141515156106d9576040517f08c379a00000000000000000000000000000000000000000000000000000000081526004018080602001828103825260178152602001807f436f6e74656e742063616e6e6f7420626520626c616e6b00000000000000000081525060200191505060405180910390fd5b600073ffffffffffffffffffffffffffffffffffffffff16600260009054906101000a900473ffffffffffffffffffffffffffffffffffffffff1673ffffffffffffffffffffffffffffffffffffffff16141515156107a0576040517f08c379a00000000000000000000000000000000000000000000000000000000081526004018080602001828103825260108152602001807f557365724c697374206e6f74207365740000000000000000000000000000000081525060200191505060405180910390fd5b600260009054906101000a900473ffffffffffffffffffffffffffffffffffffffff1673ffffffffffffffffffffffffffffffffffffffff166334510c83336040518263ffffffff167c0100000000000000000000000000000000000000000000000000000000028152600401808273ffffffffffffffffffffffffffffffffffffffff1673ffffffffffffffffffffffffffffffffffffffff168152602001915050602060405180830381600087803b15801561085d57600080fd5b505af1158015610871573d6000803e3d6000fd5b505050506040513d602081101561088757600080fd5b8101908080519060200190929190505050151561090c576040517f08c379a00000000000000000000000000000000000000000000000000000000081526004018080602001828103825260138152602001807f55736572206e6f7420726567697374657265640000000000000000000000000081525060200191505060405180910390fd5b600160408051908101604052803373ffffffffffffffffffffffffffffffffffffffff168152602001838152509080600181540180825580915050906001820390600052602060002090600202016000909192909190915060008201518160000160006101000a81548173ffffffffffffffffffffffffffffffffffffffff021916908373ffffffffffffffffffffffffffffffffffffffff16021790555060208201518160010190805190602001906109c7929190610f83565b505050503373ffffffffffffffffffffffffffffffffffffffff167f25c8846e1a28a5314cd94c71fdced157a3fd08017cf1ee136ba4cae2f2bfc669826040518080602001828103825283818151815260200191508051906020019080838360005b83811015610a44578082015181840152602081019050610a29565b50505050905090810190601f168015610a715780820380516001836020036101000a031916815260200191505b509250505060405180910390a250565b600360205281600052604060002081815481101515610a9c57fe5b906000526020600020016000915091509054906101000a900473ffffffffffffffffffffffffffffffffffffffff1681565b610ad6610bc9565b1515610ae157600080fd5b600073ffffffffffffffffffffffffffffffffffffffff166000809054906101000a900473ffffffffffffffffffffffffffffffffffffffff1673ffffffffffffffffffffffffffffffffffffffff167f8be0079c531659141344cd1fd0a4f28419497f9722a3daafe3b4186f6b6457e060405160405180910390a360008060006101000a81548173ffffffffffffffffffffffffffffffffffffffff021916908373ffffffffffffffffffffffffffffffffffffffff160217905550565b60008060009054906101000a900473ffffffffffffffffffffffffffffffffffffffff16905090565b60008060009054906101000a900473ffffffffffffffffffffffffffffffffffffffff1673ffffffffffffffffffffffffffffffffffffffff163373ffffffffffffffffffffffffffffffffffffffff1614905090565b606080600060606000600180549050925082604051908082528060200260200182016040528015610c605781602001602082028038833980820191505090505b509450600090505b82811015610e6057600181815481101515610c7f57fe5b906000526020600020906002020160000160009054906101000a900473ffffffffffffffffffffffffffffffffffffffff168582815181101515610cbf57fe5b9060200190602002019073ffffffffffffffffffffffffffffffffffffffff16908173ffffffffffffffffffffffffffffffffffffffff168152505081600182815481101515610d0b57fe5b906000526020600020906002020160010160007f0100000000000000000000000000000000000000000000000000000000000000026040516020018084805190602001908083835b602083101515610d785780518252602082019150602081019050602083039250610d53565b6001836020036101000a03801982511681845116808217855250505050505090500183805460018160011615610100020316600290048015610df15780601f10610dcf576101008083540402835291820191610df1565b820191906000526020600020905b815481529060010190602001808311610ddd575b5050827effffffffffffffffffffffffffffffffffffffffffffffffffffffffffffff19167effffffffffffffffffffffffffffffffffffffffffffffffffffffffffffff19168152600101935050505060405160208183030381529060405291508080600101915050610c68565b8193505050509091565b610e72610bc9565b1515610e7d57600080fd5b610e8681610e89565b50565b600073ffffffffffffffffffffffffffffffffffffffff168173ffffffffffffffffffffffffffffffffffffffff1614151515610ec557600080fd5b8073ffffffffffffffffffffffffffffffffffffffff166000809054906101000a900473ffffffffffffffffffffffffffffffffffffffff1673ffffffffffffffffffffffffffffffffffffffff167f8be0079c531659141344cd1fd0a4f28419497f9722a3daafe3b4186f6b6457e060405160405180910390a3806000806101000a81548173ffffffffffffffffffffffffffffffffffffffff021916908373ffffffffffffffffffffffffffffffffffffffff16021790555050565b828054600181600116156101000203166002900490600052602060002090601f016020900481019282601f10610fc457805160ff1916838001178555610ff2565b82800160010185558215610ff2579182015b82811115610ff1578251825591602001919060010190610fd6565b5b509050610fff9190611003565b5090565b61102591905b80821115611021576000816000905550600101611009565b5090565b905600a165627a7a72305820c34937b746619b726a6bbdddfaa7cd97b9b799d1f548666bef7d90fe3432f09a0029",
  "source": "pragma solidity >=0.4.24;\n\nimport \"openzeppelin-solidity/contracts/ownership/Ownable.sol\";\n\ninterface IUserList {\n    function isAddrRegistered(address _who) external view returns(bool);\n    function isNickRegistered(bytes32 _nick) external view returns(bool);\n}\n\ncontract ShoutRoom is Ownable {\n    struct ShoutMsg {\n        address who;\n        string what;\n    }\n\n    ShoutMsg[] public shoutBoard;\n    IUserList public userList;\n    \n    mapping(uint => address[]) public likers;\n\n    event Shout(address indexed who, string what);\n\n    constructor(IUserList _userList) public {\n        userList = _userList;\n    }\n\n    function setUserList(IUserList _userList) public onlyOwner {\n        userList = _userList;\n    }\n\n    function shout(string memory what) public {\n        require(bytes(what).length != 0, \"Content cannot be blank\");\n        require(address(userList) != address(0), \"UserList not set\");\n        require(userList.isAddrRegistered(msg.sender), \"User not registered\");\n        shoutBoard.push(ShoutMsg(msg.sender, what));\n        emit Shout(msg.sender, what);\n    }\n\n    function count() public view returns(uint){\n        return shoutBoard.length;\n    }\n\n    function getShouts() public view returns(address[] memory whoList, string memory content) {\n        uint len = shoutBoard.length;\n        bytes memory contentCollector;\n        whoList = new address[](len);\n        for (uint i = 0; i < len; i++) {\n            whoList[i] = shoutBoard[i].who;\n            contentCollector = abi.encodePacked(contentCollector, shoutBoard[i].what, byte(0));\n        }\n\n        content = string(contentCollector);\n    }\n\n}\n",
  "sourcePath": "/Users/thi/Documents/GitHub/ShoutBoard/contracts/ShoutRoom.sol",
  "compiler": {
    "name": "solc",
    "version": "0.4.24+commit.e67f0147.Emscripten.clang"
  },
  "schemaVersion": "2.0.1",
  "updatedAt": "2018-12-12T05:44:49.756Z"
}