{
  "contractName": "ShoutRoom",
  "abi": [
    {
      "constant": true,
      "inputs": [],
      "name": "userList",
      "outputs": [
        {
          "name": "",
          "type": "address"
        }
      ],
      "payable": false,
      "stateMutability": "view",
      "type": "function"
    },
    {
      "constant": true,
      "inputs": [
        {
          "name": "",
          "type": "uint256"
        }
      ],
      "name": "shoutBoard",
      "outputs": [
        {
          "name": "who",
          "type": "address"
        },
        {
          "name": "what",
          "type": "string"
        }
      ],
      "payable": false,
      "stateMutability": "view",
      "type": "function"
    },
    {
      "constant": true,
      "inputs": [
        {
          "name": "",
          "type": "uint256"
        },
        {
          "name": "",
          "type": "uint256"
        }
      ],
      "name": "likers",
      "outputs": [
        {
          "name": "",
          "type": "address"
        }
      ],
      "payable": false,
      "stateMutability": "view",
      "type": "function"
    },
    {
      "anonymous": false,
      "inputs": [
        {
          "indexed": true,
          "name": "who",
          "type": "address"
        },
        {
          "indexed": false,
          "name": "what",
          "type": "string"
        }
      ],
      "name": "Shout",
      "type": "event"
    },
    {
      "constant": false,
      "inputs": [
        {
          "name": "_userList",
          "type": "address"
        }
      ],
      "name": "setUserList",
      "outputs": [],
      "payable": false,
      "stateMutability": "nonpayable",
      "type": "function"
    },
    {
      "constant": false,
      "inputs": [
        {
          "name": "what",
          "type": "string"
        }
      ],
      "name": "shout",
      "outputs": [],
      "payable": false,
      "stateMutability": "nonpayable",
      "type": "function"
    },
    {
      "constant": true,
      "inputs": [],
      "name": "count",
      "outputs": [
        {
          "name": "",
          "type": "uint256"
        }
      ],
      "payable": false,
      "stateMutability": "view",
      "type": "function"
    },
    {
      "constant": true,
      "inputs": [],
      "name": "getShouts",
      "outputs": [
        {
          "name": "whoList",
          "type": "address[]"
        },
        {
          "name": "content",
          "type": "string"
        }
      ],
      "payable": false,
      "stateMutability": "view",
      "type": "function"
    }
  ],
  "bytecode": "0x608060405234801561001057600080fd5b50610a1b806100206000396000f300608060405260043610610083576000357c0100000000000000000000000000000000000000000000000000000000900463ffffffff16806306661abd146100885780630e0f785f146100b35780633998cacb1461010a5780635c0c3dce146101e3578063625d2055146102265780636d5a38611461028f578063d7fd12a814610306575b600080fd5b34801561009457600080fd5b5061009d6103de565b6040518082815260200191505060405180910390f35b3480156100bf57600080fd5b506100c86103ea565b604051808273ffffffffffffffffffffffffffffffffffffffff1673ffffffffffffffffffffffffffffffffffffffff16815260200191505060405180910390f35b34801561011657600080fd5b5061013560048036038101908080359060200190929190505050610410565b604051808373ffffffffffffffffffffffffffffffffffffffff1673ffffffffffffffffffffffffffffffffffffffff16815260200180602001828103825283818151815260200191508051906020019080838360005b838110156101a757808201518184015260208101905061018c565b50505050905090810190601f1680156101d45780820380516001836020036101000a031916815260200191505b50935050505060405180910390f35b3480156101ef57600080fd5b50610224600480360381019080803573ffffffffffffffffffffffffffffffffffffffff1690602001909291905050506104fb565b005b34801561023257600080fd5b5061028d600480360381019080803590602001908201803590602001908080601f016020809104026020016040519081016040528093929190818152602001838380828437820191505050505050919291929050505061053f565b005b34801561029b57600080fd5b506102c460048036038101908080359060200190929190803590602001909291905050506106b4565b604051808273ffffffffffffffffffffffffffffffffffffffff1673ffffffffffffffffffffffffffffffffffffffff16815260200191505060405180910390f35b34801561031257600080fd5b5061031b610701565b604051808060200180602001838103835285818151815260200191508051906020019060200280838360005b83811015610362578082015181840152602081019050610347565b50505050905001838103825284818151815260200191508051906020019080838360005b838110156103a1578082015181840152602081019050610386565b50505050905090810190601f1680156103ce5780820380516001836020036101000a031916815260200191505b5094505050505060405180910390f35b60008080549050905090565b600160009054906101000a900473ffffffffffffffffffffffffffffffffffffffff1681565b60008181548110151561041f57fe5b90600052602060002090600202016000915090508060000160009054906101000a900473ffffffffffffffffffffffffffffffffffffffff1690806001018054600181600116156101000203166002900480601f0160208091040260200160405190810160405280929190818152602001828054600181600116156101000203166002900480156104f15780601f106104c6576101008083540402835291602001916104f1565b820191906000526020600020905b8154815290600101906020018083116104d457829003601f168201915b5050505050905082565b80600160006101000a81548173ffffffffffffffffffffffffffffffffffffffff021916908373ffffffffffffffffffffffffffffffffffffffff16021790555050565b600060408051908101604052803373ffffffffffffffffffffffffffffffffffffffff168152602001838152509080600181540180825580915050906001820390600052602060002090600202016000909192909190915060008201518160000160006101000a81548173ffffffffffffffffffffffffffffffffffffffff021916908373ffffffffffffffffffffffffffffffffffffffff16021790555060208201518160010190805190602001906105fa92919061094a565b505050503373ffffffffffffffffffffffffffffffffffffffff167f25c8846e1a28a5314cd94c71fdced157a3fd08017cf1ee136ba4cae2f2bfc669826040518080602001828103825283818151815260200191508051906020019080838360005b8381101561067757808201518184015260208101905061065c565b50505050905090810190601f1680156106a45780820380516001836020036101000a031916815260200191505b509250505060405180910390a250565b6002602052816000526040600020818154811015156106cf57fe5b906000526020600020016000915091509054906101000a900473ffffffffffffffffffffffffffffffffffffffff1681565b60608060006060600080805490509250826040519080825280602002602001820160405280156107405781602001602082028038833980820191505090505b509450600090505b828110156109405760008181548110151561075f57fe5b906000526020600020906002020160000160009054906101000a900473ffffffffffffffffffffffffffffffffffffffff16858281518110151561079f57fe5b9060200190602002019073ffffffffffffffffffffffffffffffffffffffff16908173ffffffffffffffffffffffffffffffffffffffff1681525050816000828154811015156107eb57fe5b906000526020600020906002020160010160007f0100000000000000000000000000000000000000000000000000000000000000026040516020018084805190602001908083835b6020831015156108585780518252602082019150602081019050602083039250610833565b6001836020036101000a038019825116818451168082178552505050505050905001838054600181600116156101000203166002900480156108d15780601f106108af5761010080835404028352918201916108d1565b820191906000526020600020905b8154815290600101906020018083116108bd575b5050827effffffffffffffffffffffffffffffffffffffffffffffffffffffffffffff19167effffffffffffffffffffffffffffffffffffffffffffffffffffffffffffff19168152600101935050505060405160208183030381529060405291508080600101915050610748565b8193505050509091565b828054600181600116156101000203166002900490600052602060002090601f016020900481019282601f1061098b57805160ff19168380011785556109b9565b828001600101855582156109b9579182015b828111156109b857825182559160200191906001019061099d565b5b5090506109c691906109ca565b5090565b6109ec91905b808211156109e85760008160009055506001016109d0565b5090565b905600a165627a7a723058206b627c666efe891bd34104b5c4867749bba91c8454fc12a31349299dc6e482c60029",
  "source": "pragma solidity >=0.4.24;\n\ninterface IUserList {\n  function isAddrRegistered(address _who) external view returns(bool);\n  function isNickRegistered(bytes32 _nick) external view returns(bool);\n}\n\ncontract ShoutRoom {\n  struct ShoutMsg {\n    address who;\n    string what;\n  }\n\n  ShoutMsg[] public shoutBoard;\n  IUserList public userList;\n  \n  mapping(uint => address[]) public likers;\n\n  event Shout(address indexed who, string what);\n\n  function setUserList(IUserList _userList) public {\n      userList = _userList;\n  }\n\n  function shout(string memory what) public {\n    //require(userList.isAddrRegistered(msg.sender));\n    shoutBoard.push(ShoutMsg(msg.sender, what));\n    emit Shout(msg.sender, what);\n  }\n\n  function count() view public returns(uint){\n    return shoutBoard.length;\n  }\n\n  function getShouts() view public returns(address[] memory whoList, string memory content) {\n    uint len = shoutBoard.length;\n    bytes memory contentCollector;\n    whoList  = new address[](len);\n    for (uint i = 0; i < len; i++) {\n      whoList[i] = shoutBoard[i].who;\n      contentCollector = abi.encodePacked(contentCollector, shoutBoard[i].what, byte(0));\n    }\n\n\n    content = string(contentCollector);\n  }\n\n}\n",
  "sourcePath": "/Users/thi/Documents/GitHub/ShoutBoard/contracts/ShoutRoom.sol",
  "compiler": {
    "name": "solc",
    "version": "0.4.24+commit.e67f0147.Emscripten.clang"
  },
  "schemaVersion": "2.0.1",
  "updatedAt": "2018-12-10T12:54:23.584Z"
}