{
  "contractName": "UserList",
  "abi": [
    {
      "constant": true,
      "inputs": [
        {
          "name": "",
          "type": "bytes32"
        }
      ],
      "name": "nickToAddr",
      "outputs": [
        {
          "name": "",
          "type": "address"
        }
      ],
      "payable": false,
      "stateMutability": "view",
      "type": "function"
    },
    {
      "constant": true,
      "inputs": [
        {
          "name": "",
          "type": "address"
        }
      ],
      "name": "addrToUser",
      "outputs": [
        {
          "name": "nick",
          "type": "bytes32"
        },
        {
          "name": "isMale",
          "type": "bool"
        }
      ],
      "payable": false,
      "stateMutability": "view",
      "type": "function"
    },
    {
      "constant": true,
      "inputs": [
        {
          "name": "_who",
          "type": "address"
        }
      ],
      "name": "isAddrRegistered",
      "outputs": [
        {
          "name": "",
          "type": "bool"
        }
      ],
      "payable": false,
      "stateMutability": "view",
      "type": "function"
    },
    {
      "constant": true,
      "inputs": [
        {
          "name": "_nick",
          "type": "bytes32"
        }
      ],
      "name": "isNickRegistered",
      "outputs": [
        {
          "name": "",
          "type": "bool"
        }
      ],
      "payable": false,
      "stateMutability": "view",
      "type": "function"
    },
    {
      "constant": false,
      "inputs": [
        {
          "name": "_nick",
          "type": "bytes32"
        },
        {
          "name": "_isMale",
          "type": "bool"
        }
      ],
      "name": "register",
      "outputs": [],
      "payable": false,
      "stateMutability": "nonpayable",
      "type": "function"
    },
    {
      "constant": true,
      "inputs": [
        {
          "name": "_nick",
          "type": "bytes32"
        }
      ],
      "name": "getUserByNick",
      "outputs": [
        {
          "name": "who",
          "type": "address"
        },
        {
          "name": "isMale",
          "type": "bool"
        }
      ],
      "payable": false,
      "stateMutability": "view",
      "type": "function"
    },
    {
      "constant": true,
      "inputs": [
        {
          "name": "who",
          "type": "address"
        }
      ],
      "name": "getUserByAddr",
      "outputs": [
        {
          "name": "nick",
          "type": "bytes32"
        },
        {
          "name": "isMale",
          "type": "bool"
        }
      ],
      "payable": false,
      "stateMutability": "view",
      "type": "function"
    },
    {
      "constant": false,
      "inputs": [
        {
          "name": "_isMale",
          "type": "bool"
        }
      ],
      "name": "updateMe",
      "outputs": [],
      "payable": false,
      "stateMutability": "nonpayable",
      "type": "function"
    }
  ],
  "bytecode": "0x608060405234801561001057600080fd5b5061074f806100206000396000f30060806040526004361061008e576000357c0100000000000000000000000000000000000000000000000000000000900463ffffffff16806334510c831461009357806344c5db1d146100ee5780634534fc351461012b578063695f184714610174578063c181bba3146101f0578063cfcddeb014610261578063e76c8b3f146102cb578063f16e4e46146102fa575b600080fd5b34801561009f57600080fd5b506100d4600480360381019080803573ffffffffffffffffffffffffffffffffffffffff169060200190929190505050610364565b604051808215151515815260200191505060405180910390f35b3480156100fa57600080fd5b5061012960048036038101908080356000191690602001909291908035151590602001909291905050506103b9565b005b34801561013757600080fd5b5061015a60048036038101908080356000191690602001909291905050506104de565b604051808215151515815260200191505060405180910390f35b34801561018057600080fd5b506101a36004803603810190808035600019169060200190929190505050610552565b604051808373ffffffffffffffffffffffffffffffffffffffff1673ffffffffffffffffffffffffffffffffffffffff168152602001821515151581526020019250505060405180910390f35b3480156101fc57600080fd5b5061021f60048036038101908080356000191690602001909291905050506105e9565b604051808273ffffffffffffffffffffffffffffffffffffffff1673ffffffffffffffffffffffffffffffffffffffff16815260200191505060405180910390f35b34801561026d57600080fd5b506102a2600480360381019080803573ffffffffffffffffffffffffffffffffffffffff16906020019092919050505061061c565b604051808360001916600019168152602001821515151581526020019250505060405180910390f35b3480156102d757600080fd5b506102f860048036038101908080351515906020019092919050505061064d565b005b34801561030657600080fd5b5061033b600480360381019080803573ffffffffffffffffffffffffffffffffffffffff1690602001909291905050506106bd565b604051808360001916600019168152602001821515151581526020019250505060405180910390f35b6000806001026000808473ffffffffffffffffffffffffffffffffffffffff1673ffffffffffffffffffffffffffffffffffffffff168152602001908152602001600020600001546000191614159050919050565b60006001028260001916141580156103d757506103d533610364565b155b80156103e957506103e7826104de565b155b15156103f457600080fd5b6040805190810160405280836000191681526020018215158152506000803373ffffffffffffffffffffffffffffffffffffffff1673ffffffffffffffffffffffffffffffffffffffff1681526020019081526020016000206000820151816000019060001916905560208201518160010160006101000a81548160ff0219169083151502179055509050503360016000846000191660001916815260200190815260200160002060006101000a81548173ffffffffffffffffffffffffffffffffffffffff021916908373ffffffffffffffffffffffffffffffffffffffff1602179055505050565b60008073ffffffffffffffffffffffffffffffffffffffff1660016000846000191660001916815260200190815260200160002060009054906101000a900473ffffffffffffffffffffffffffffffffffffffff1673ffffffffffffffffffffffffffffffffffffffff1614159050919050565b60008060016000846000191660001916815260200190815260200160002060009054906101000a900473ffffffffffffffffffffffffffffffffffffffff1691506000808373ffffffffffffffffffffffffffffffffffffffff1673ffffffffffffffffffffffffffffffffffffffff16815260200190815260200160002060010160009054906101000a900460ff169050915091565b60016020528060005260406000206000915054906101000a900473ffffffffffffffffffffffffffffffffffffffff1681565b60006020528060005260406000206000915090508060000154908060010160009054906101000a900460ff16905082565b61065633610364565b151561066157600080fd5b806000803373ffffffffffffffffffffffffffffffffffffffff1673ffffffffffffffffffffffffffffffffffffffff16815260200190815260200160002060010160006101000a81548160ff02191690831515021790555050565b60008060008060008573ffffffffffffffffffffffffffffffffffffffff1673ffffffffffffffffffffffffffffffffffffffff168152602001908152602001600020905080600001548160010160009054906101000a900460ff1692509250509150915600a165627a7a72305820da492463135bc37c02ab4212f3aed0668c8a0b6856508453c157c6ddb7a07fe40029",
  "source": "pragma solidity >=0.4.24;\n\ncontract UserList {\n    struct User {\n        bytes32 nick;\n        bool isMale;\n        // TODO: more in the future\n    }\n\n    mapping (address => User) public addrToUser;\n    mapping (bytes32 => address) public nickToAddr;\n    \n    mapping (address => address[]) followList;\n\n    function isAddrRegistered(address _who) public view returns(bool) {\n        return addrToUser[_who].nick != 0;\n    }\n\n    function isNickRegistered(bytes32 _nick) public view returns(bool) {\n        return nickToAddr[_nick] != address(0);\n    }\n\n    function register(bytes32 _nick, bool _isMale)    public {\n        require(_nick != 0 && !isAddrRegistered(msg.sender) && !isNickRegistered(_nick));\n        addrToUser[msg.sender] = User(_nick, _isMale);\n        nickToAddr[_nick] = msg.sender;\n    }\n\n    function getUserByNick(bytes32 _nick) public view returns(address who, bool isMale) {\n        who = nickToAddr[_nick];\n        isMale = addrToUser[who].isMale;\n    }\n\n    function getUserByAddr(address who) public view returns(bytes32 nick, bool isMale) {\n        User storage user = addrToUser[who];\n        return (user.nick, user.isMale);\n    }\n\n\n    function updateMe(bool _isMale) public {\n        require(isAddrRegistered(msg.sender));\n        addrToUser[msg.sender].isMale = _isMale;\n    }\n\n\n}\n",
  "sourcePath": "/Users/thi/Documents/GitHub/ShoutBoard/contracts/UserList.sol",
  "compiler": {
    "name": "solc",
    "version": "0.4.24+commit.e67f0147.Emscripten.clang"
  },
  "schemaVersion": "2.0.1",
  "updatedAt": "2018-12-12T05:36:24.520Z"
}