{
  "contractName": "UserList",
  "abi": [
    {
      "constant": true,
      "inputs": [
        {
          "name": "",
          "type": "bytes32"
        }
      ],
      "name": "nickToAddr",
      "outputs": [
        {
          "name": "",
          "type": "address"
        }
      ],
      "payable": false,
      "stateMutability": "view",
      "type": "function"
    },
    {
      "constant": true,
      "inputs": [
        {
          "name": "",
          "type": "address"
        }
      ],
      "name": "addrToUser",
      "outputs": [
        {
          "name": "nick",
          "type": "bytes32"
        },
        {
          "name": "isMale",
          "type": "bool"
        }
      ],
      "payable": false,
      "stateMutability": "view",
      "type": "function"
    },
    {
      "constant": true,
      "inputs": [
        {
          "name": "_who",
          "type": "address"
        }
      ],
      "name": "isAddrRegistered",
      "outputs": [
        {
          "name": "",
          "type": "bool"
        }
      ],
      "payable": false,
      "stateMutability": "view",
      "type": "function"
    },
    {
      "constant": true,
      "inputs": [
        {
          "name": "_nick",
          "type": "bytes32"
        }
      ],
      "name": "isNickRegistered",
      "outputs": [
        {
          "name": "",
          "type": "bool"
        }
      ],
      "payable": false,
      "stateMutability": "view",
      "type": "function"
    },
    {
      "constant": false,
      "inputs": [
        {
          "name": "_nick",
          "type": "bytes32"
        },
        {
          "name": "_isMale",
          "type": "bool"
        }
      ],
      "name": "register",
      "outputs": [],
      "payable": false,
      "stateMutability": "nonpayable",
      "type": "function"
    },
    {
      "constant": true,
      "inputs": [
        {
          "name": "_nick",
          "type": "bytes32"
        }
      ],
      "name": "getUserByNick",
      "outputs": [
        {
          "name": "who",
          "type": "address"
        },
        {
          "name": "isMale",
          "type": "bool"
        }
      ],
      "payable": false,
      "stateMutability": "view",
      "type": "function"
    },
    {
      "constant": true,
      "inputs": [
        {
          "name": "who",
          "type": "address"
        }
      ],
      "name": "getUserByAddr",
      "outputs": [
        {
          "name": "nick",
          "type": "bytes32"
        },
        {
          "name": "isMale",
          "type": "bool"
        }
      ],
      "payable": false,
      "stateMutability": "view",
      "type": "function"
    },
    {
      "constant": true,
      "inputs": [],
      "name": "getMe",
      "outputs": [
        {
          "name": "nick",
          "type": "bytes32"
        },
        {
          "name": "isMale",
          "type": "bool"
        }
      ],
      "payable": false,
      "stateMutability": "view",
      "type": "function"
    },
    {
      "constant": false,
      "inputs": [
        {
          "name": "_isMale",
          "type": "bool"
        }
      ],
      "name": "updateMe",
      "outputs": [],
      "payable": false,
      "stateMutability": "nonpayable",
      "type": "function"
    }
  ],
  "bytecode": "0x608060405234801561001057600080fd5b506107ac806100206000396000f300608060405260043610610099576000357c0100000000000000000000000000000000000000000000000000000000900463ffffffff16806334510c831461009e57806344c5db1d146100f95780634534fc3514610136578063695f18471461017f578063c11e1ff3146101fb578063c181bba314610239578063cfcddeb0146102aa578063e76c8b3f14610314578063f16e4e4614610343575b600080fd5b3480156100aa57600080fd5b506100df600480360381019080803573ffffffffffffffffffffffffffffffffffffffff1690602001909291905050506103ad565b604051808215151515815260200191505060405180910390f35b34801561010557600080fd5b506101346004803603810190808035600019169060200190929190803515159060200190929190505050610402565b005b34801561014257600080fd5b506101656004803603810190808035600019169060200190929190505050610527565b604051808215151515815260200191505060405180910390f35b34801561018b57600080fd5b506101ae600480360381019080803560001916906020019092919050505061059b565b604051808373ffffffffffffffffffffffffffffffffffffffff1673ffffffffffffffffffffffffffffffffffffffff168152602001821515151581526020019250505060405180910390f35b34801561020757600080fd5b50610210610632565b604051808360001916600019168152602001821515151581526020019250505060405180910390f35b34801561024557600080fd5b506102686004803603810190808035600019169060200190929190505050610646565b604051808273ffffffffffffffffffffffffffffffffffffffff1673ffffffffffffffffffffffffffffffffffffffff16815260200191505060405180910390f35b3480156102b657600080fd5b506102eb600480360381019080803573ffffffffffffffffffffffffffffffffffffffff169060200190929190505050610679565b604051808360001916600019168152602001821515151581526020019250505060405180910390f35b34801561032057600080fd5b506103416004803603810190808035151590602001909291905050506106aa565b005b34801561034f57600080fd5b50610384600480360381019080803573ffffffffffffffffffffffffffffffffffffffff16906020019092919050505061071a565b604051808360001916600019168152602001821515151581526020019250505060405180910390f35b6000806001026000808473ffffffffffffffffffffffffffffffffffffffff1673ffffffffffffffffffffffffffffffffffffffff168152602001908152602001600020600001546000191614159050919050565b6000600102826000191614158015610420575061041e336103ad565b155b8015610432575061043082610527565b155b151561043d57600080fd5b6040805190810160405280836000191681526020018215158152506000803373ffffffffffffffffffffffffffffffffffffffff1673ffffffffffffffffffffffffffffffffffffffff1681526020019081526020016000206000820151816000019060001916905560208201518160010160006101000a81548160ff0219169083151502179055509050503360016000846000191660001916815260200190815260200160002060006101000a81548173ffffffffffffffffffffffffffffffffffffffff021916908373ffffffffffffffffffffffffffffffffffffffff1602179055505050565b60008073ffffffffffffffffffffffffffffffffffffffff1660016000846000191660001916815260200190815260200160002060009054906101000a900473ffffffffffffffffffffffffffffffffffffffff1673ffffffffffffffffffffffffffffffffffffffff1614159050919050565b60008060016000846000191660001916815260200190815260200160002060009054906101000a900473ffffffffffffffffffffffffffffffffffffffff1691506000808373ffffffffffffffffffffffffffffffffffffffff1673ffffffffffffffffffffffffffffffffffffffff16815260200190815260200160002060010160009054906101000a900460ff169050915091565b60008061063e3361071a565b915091509091565b60016020528060005260406000206000915054906101000a900473ffffffffffffffffffffffffffffffffffffffff1681565b60006020528060005260406000206000915090508060000154908060010160009054906101000a900460ff16905082565b6106b3336103ad565b15156106be57600080fd5b806000803373ffffffffffffffffffffffffffffffffffffffff1673ffffffffffffffffffffffffffffffffffffffff16815260200190815260200160002060010160006101000a81548160ff02191690831515021790555050565b60008060008060008573ffffffffffffffffffffffffffffffffffffffff1673ffffffffffffffffffffffffffffffffffffffff168152602001908152602001600020905080600001548160010160009054906101000a900460ff1692509250509150915600a165627a7a7230582014fe96ce738fa4282f0d6fa246e931f74492c81020ea268a1f2a4448eb510c300029",
  "source": "pragma solidity >=0.4.24;\n\ncontract UserList {\n    struct User {\n        bytes32 nick;\n        bool isMale;\n        // TODO: more in the future\n    }\n\n    mapping (address => User) public addrToUser;\n    mapping (bytes32 => address) public nickToAddr;\n    \n    mapping (address => address[]) followList;\n\n    function isAddrRegistered(address _who) public view returns(bool) {\n        return addrToUser[_who].nick != 0;\n    }\n\n    function isNickRegistered(bytes32 _nick) public view returns(bool) {\n        return nickToAddr[_nick] != address(0);\n    }\n\n    function register(bytes32 _nick, bool _isMale)    public {\n        require(_nick != 0 && !isAddrRegistered(msg.sender) && !isNickRegistered(_nick));\n        addrToUser[msg.sender] = User(_nick, _isMale);\n        nickToAddr[_nick] = msg.sender;\n    }\n\n    function getUserByNick(bytes32 _nick) public view returns(address who, bool isMale) {\n        who = nickToAddr[_nick];\n        isMale = addrToUser[who].isMale;\n    }\n\n    function getUserByAddr(address who) public view returns(bytes32 nick, bool isMale) {\n        User storage user = addrToUser[who];\n        return (user.nick, user.isMale);\n    }\n\n    function getMe() public view returns(bytes32 nick, bool isMale) {\n        return getUserByAddr(msg.sender);\n    }\n\n    function updateMe(bool _isMale) public {\n        require(isAddrRegistered(msg.sender));\n        addrToUser[msg.sender].isMale = _isMale;\n    }\n\n\n}\n",
  "sourcePath": "/Users/thi/Documents/GitHub/ShoutBoard/contracts/UserList.sol",
  "compiler": {
    "name": "solc",
    "version": "0.4.24+commit.e67f0147.Emscripten.clang"
  },
  "schemaVersion": "2.0.1",
  "updatedAt": "2018-12-11T11:26:29.931Z"
}