{
  "contractName": "UserList",
  "abi": [
    {
      "constant": true,
      "inputs": [
        {
          "name": "",
          "type": "bytes32"
        }
      ],
      "name": "nickToAddr",
      "outputs": [
        {
          "name": "",
          "type": "address"
        }
      ],
      "payable": false,
      "stateMutability": "view",
      "type": "function"
    },
    {
      "constant": true,
      "inputs": [
        {
          "name": "",
          "type": "address"
        }
      ],
      "name": "addrToUser",
      "outputs": [
        {
          "name": "nick",
          "type": "bytes32"
        },
        {
          "name": "avatarHash",
          "type": "string"
        }
      ],
      "payable": false,
      "stateMutability": "view",
      "type": "function"
    },
    {
      "constant": true,
      "inputs": [
        {
          "name": "_who",
          "type": "address"
        }
      ],
      "name": "isAddrRegistered",
      "outputs": [
        {
          "name": "",
          "type": "bool"
        }
      ],
      "payable": false,
      "stateMutability": "view",
      "type": "function"
    },
    {
      "constant": true,
      "inputs": [
        {
          "name": "_nick",
          "type": "bytes32"
        }
      ],
      "name": "isNickRegistered",
      "outputs": [
        {
          "name": "",
          "type": "bool"
        }
      ],
      "payable": false,
      "stateMutability": "view",
      "type": "function"
    },
    {
      "constant": false,
      "inputs": [
        {
          "name": "_nick",
          "type": "bytes32"
        },
        {
          "name": "_avatarHash",
          "type": "string"
        }
      ],
      "name": "register",
      "outputs": [],
      "payable": false,
      "stateMutability": "nonpayable",
      "type": "function"
    },
    {
      "constant": true,
      "inputs": [
        {
          "name": "_nick",
          "type": "bytes32"
        }
      ],
      "name": "getUserByNick",
      "outputs": [
        {
          "name": "who",
          "type": "address"
        },
        {
          "name": "avatarHash",
          "type": "string"
        }
      ],
      "payable": false,
      "stateMutability": "view",
      "type": "function"
    },
    {
      "constant": true,
      "inputs": [
        {
          "name": "who",
          "type": "address"
        }
      ],
      "name": "getUserByAddr",
      "outputs": [
        {
          "name": "nick",
          "type": "bytes32"
        },
        {
          "name": "avatarHash",
          "type": "string"
        }
      ],
      "payable": false,
      "stateMutability": "view",
      "type": "function"
    }
  ],
  "bytecode": "0x608060405234801561001057600080fd5b50610ab1806100206000396000f300608060405260043610610083576000357c0100000000000000000000000000000000000000000000000000000000900463ffffffff16806334510c83146100885780634534fc35146100e3578063695f18471461012c578063c181bba314610209578063cf2d31fb1461027a578063cfcddeb0146102f1578063f16e4e46146103bc575b600080fd5b34801561009457600080fd5b506100c9600480360381019080803573ffffffffffffffffffffffffffffffffffffffff169060200190929190505050610487565b604051808215151515815260200191505060405180910390f35b3480156100ef57600080fd5b5061011260048036038101908080356000191690602001909291905050506104dc565b604051808215151515815260200191505060405180910390f35b34801561013857600080fd5b5061015b6004803603810190808035600019169060200190929190505050610550565b604051808373ffffffffffffffffffffffffffffffffffffffff1673ffffffffffffffffffffffffffffffffffffffff16815260200180602001828103825283818151815260200191508051906020019080838360005b838110156101cd5780820151818401526020810190506101b2565b50505050905090810190601f1680156101fa5780820380516001836020036101000a031916815260200191505b50935050505060405180910390f35b34801561021557600080fd5b506102386004803603810190808035600019169060200190929190505050610673565b604051808273ffffffffffffffffffffffffffffffffffffffff1673ffffffffffffffffffffffffffffffffffffffff16815260200191505060405180910390f35b34801561028657600080fd5b506102ef6004803603810190808035600019169060200190929190803590602001908201803590602001908080601f01602080910402602001604051908101604052809392919081815260200183838082843782019150505050505091929192905050506106a6565b005b3480156102fd57600080fd5b50610332600480360381019080803573ffffffffffffffffffffffffffffffffffffffff16906020019092919050505061082f565b60405180836000191660001916815260200180602001828103825283818151815260200191508051906020019080838360005b83811015610380578082015181840152602081019050610365565b50505050905090810190601f1680156103ad5780820380516001836020036101000a031916815260200191505b50935050505060405180910390f35b3480156103c857600080fd5b506103fd600480360381019080803573ffffffffffffffffffffffffffffffffffffffff1690602001909291905050506108eb565b60405180836000191660001916815260200180602001828103825283818151815260200191508051906020019080838360005b8381101561044b578082015181840152602081019050610430565b50505050905090810190601f1680156104785780820380516001836020036101000a031916815260200191505b50935050505060405180910390f35b6000806001026000808473ffffffffffffffffffffffffffffffffffffffff1673ffffffffffffffffffffffffffffffffffffffff168152602001908152602001600020600001546000191614159050919050565b60008073ffffffffffffffffffffffffffffffffffffffff1660016000846000191660001916815260200190815260200160002060009054906101000a900473ffffffffffffffffffffffffffffffffffffffff1673ffffffffffffffffffffffffffffffffffffffff1614159050919050565b6000606060016000846000191660001916815260200190815260200160002060009054906101000a900473ffffffffffffffffffffffffffffffffffffffff1691506000808373ffffffffffffffffffffffffffffffffffffffff1673ffffffffffffffffffffffffffffffffffffffff1681526020019081526020016000206001018054600181600116156101000203166002900480601f0160208091040260200160405190810160405280929190818152602001828054600181600116156101000203166002900480156106675780601f1061063c57610100808354040283529160200191610667565b820191906000526020600020905b81548152906001019060200180831161064a57829003601f168201915b50505050509050915091565b60016020528060005260406000206000915054906101000a900473ffffffffffffffffffffffffffffffffffffffff1681565b60006001028260001916141580156106c457506106c233610487565b155b80156106d657506106d4826104dc565b155b151561074a576040517f08c379a00000000000000000000000000000000000000000000000000000000081526004018080602001828103825260108152602001807f496e76616c696420617267756d656e740000000000000000000000000000000081525060200191505060405180910390fd5b604080519081016040528083600019168152602001828152506000803373ffffffffffffffffffffffffffffffffffffffff1673ffffffffffffffffffffffffffffffffffffffff1681526020019081526020016000206000820151816000019060001916905560208201518160010190805190602001906107cd9291906109e0565b509050503360016000846000191660001916815260200190815260200160002060006101000a81548173ffffffffffffffffffffffffffffffffffffffff021916908373ffffffffffffffffffffffffffffffffffffffff1602179055505050565b6000602052806000526040600020600091509050806000015490806001018054600181600116156101000203166002900480601f0160208091040260200160405190810160405280929190818152602001828054600181600116156101000203166002900480156108e15780601f106108b6576101008083540402835291602001916108e1565b820191906000526020600020905b8154815290600101906020018083116108c457829003601f168201915b5050505050905082565b6000606060008060008573ffffffffffffffffffffffffffffffffffffffff1673ffffffffffffffffffffffffffffffffffffffff1681526020019081526020016000209050806000015481600101808054600181600116156101000203166002900480601f0160208091040260200160405190810160405280929190818152602001828054600181600116156101000203166002900480156109cf5780601f106109a4576101008083540402835291602001916109cf565b820191906000526020600020905b8154815290600101906020018083116109b257829003601f168201915b505050505090509250925050915091565b828054600181600116156101000203166002900490600052602060002090601f016020900481019282601f10610a2157805160ff1916838001178555610a4f565b82800160010185558215610a4f579182015b82811115610a4e578251825591602001919060010190610a33565b5b509050610a5c9190610a60565b5090565b610a8291905b80821115610a7e576000816000905550600101610a66565b5090565b905600a165627a7a72305820efaa448c3fd3cc98492d34d6836c888262dd7de4f244dcd37f9419978faf4a220029",
  "source": "pragma solidity >=0.4.24;\n\ncontract UserList {\n    struct User {\n        bytes32 nick;\n        string avatarHash;\n    }\n\n    mapping (address => User) public addrToUser;\n    mapping (bytes32 => address) public nickToAddr;\n    \n    mapping (address => address[]) followList;\n\n    function isAddrRegistered(address _who) public view returns(bool) {\n        return addrToUser[_who].nick != 0;\n    }\n\n    function isNickRegistered(bytes32 _nick) public view returns(bool) {\n        return nickToAddr[_nick] != address(0);\n    }\n\n    function register(bytes32 _nick, string memory _avatarHash)    public {\n        require(_nick != 0 && !isAddrRegistered(msg.sender) && !isNickRegistered(_nick), \"Invalid argument\");\n        addrToUser[msg.sender] = User(_nick, _avatarHash);\n        nickToAddr[_nick] = msg.sender;\n    }\n\n    function getUserByNick(bytes32 _nick) public view returns(address who, string memory avatarHash) {\n        who = nickToAddr[_nick];\n        avatarHash = addrToUser[who].avatarHash;\n    }\n\n    function getUserByAddr(address who) public view returns(bytes32 nick, string memory avatarHash) {\n        User storage user = addrToUser[who];\n        return (user.nick, user.avatarHash);\n    }\n\n}\n",
  "sourcePath": "/Users/thi/Documents/GitHub/ShoutBoard/contracts/UserList.sol",
  "compiler": {
    "name": "solc",
    "version": "0.4.24+commit.e67f0147.Emscripten.clang"
  },
  "schemaVersion": "2.0.1",
  "updatedAt": "2018-12-19T12:07:48.007Z"
}